:020000041000EA
:1000000000B5324B212058609868022188439860DF
:10001000D860186158612E4B002199600221596106
:100020000121F02299502B49196001219960352056
:1000300000F044F80222904214D00621196600F024
:1000400034F8196E01211966002018661A6600F04E
:100050002CF8196E196E196E052000F02FF8012189
:100060000842F9D1002199601B49196000215960AB
:100070001A491B48016001219960EB211966A021F2
:10008000196600F012F800219960164914480160C1
:100090000121996001BC002800D000471248134993
:1000A000086003C880F30888084703B5996A0420EC
:1000B0000142FBD001200142F8D103BD02B5186610
:1000C0001866FFF7F2FF186E186E02BD00000240BE
:1000D000000000180000070000035F00212200005C
:1000E000F4000018222000A00001001008ED00E03C
:1000F00000000000000000000000000074B24E7A12
:1001000000200420F7010010C3010010C5010010F9
:10011000C1010010C1010010C1010010C101001097
:10012000C1010010C1010010C1010010C701001081
:10013000C1010010C1010010C9010010CB01001065
:10014000CD010010CD010010CD010010CD01001037
:10015000CD010010CD010010CD010010CD01001027
:10016000CD010010CD010010CD010010CD01001017
:10017000CD010010CD010010CD010010CD01001007
:10018000CD010010CD010010CD010010CD010010F7
:10019000CD010010CD010010CD010010CD010010E7
:1001A000CD010010CD010010CD010010CD010010D7
:1001B000CD010010CD010010CD010010CD010010C7
:1001C00000BE00BE00BE00BE00BE00BEEFF3058054
:1001D000103800BEF2EB8871403E0010683E0010FF
:1001E0003802001090A31AE71E481F49086006C88D
:1001F00081F3088810471D480068002801D019487D
:10020000F3E70DA40ECC002902D000F012F8F9E7B4
:100210001749184A002000E001C19142FCD116495B
:100220008847164988471649884700BEFDE701C937
:1002300001C29A42FBD37047683E0010C000002004
:1002400078110020204F001000000420000004203E
:10025000204F0010001004200010042000000000B7
:10026000704700000000000008ED00E0000000D032
:1002700078110020601F0020FD1C001021030010D9
:10028000F51C0010F8B5C0460448054B10B5834274
:1002900003D0044B002B00D0984710BD78110020EC
:1002A000781100200000000006480749091A8B1049
:1002B000C90FC91810B5491003D0044B002B00D04A
:1002C000984710BD78110020781100200000000030
:1002D00010B5074C2378002B09D1FFF7D5FF054B4C
:1002E000002B02D0044800E000BF0123237010BDA2
:1002F000F814002000000000783A0010054B10B5FB
:10030000002B03D00449054800E000BFFFF7CCFFF5
:1003100010BDC04600000000FC140020783A001018
:1003200070B584B003F032FA0021002003F0C8F861
:10033000012601200021404202F080F902F0E8F895
:10034000002802D002F0ECF8F3E7002002F0F0FE03
:100350000028EED003F06CFA032101F07DFB0C00C5
:1003600003F066FA032101F077FB0D0003F060FA59
:10037000064201D064426D4200226DB263B2029225
:10038000019202210095002002F0EEFE03F050FAE7
:10039000034901F061FB6431080000F0F5FEC8E795
:1003A0008503000010B5012003F008FA10BDC04617
:1003B00010B5012003F002FA10BDC04610B50020B0
:1003C00003F0FCF910BDC04610B5002003F0F6F9AB
:1003D00010BDC04630B50B7885B00133DBB2042BBD
:1003E00001D905B030BD002002F0A2FE0028F8D0EF
:1003F00003F01EFA032101F02FFB0C0003F018FAA2
:10040000032101F029FB0D0003F012FAC00701D50A
:1004100064426D4200226DB263B2029201920221E7
:100420000095002002F0A0FE03F002FA034901F05B
:1004300013FB6431080000F0A7FED2E7850300003B
:10044000002070477047C04600487047BC3C001011
:1004500000487047CC3B001000487047A83B001094
:1004600070B5002823D003282CD8174B8000C5581E
:10047000280003F0F7F9C0B2041C1F2812D8E4B218
:10048000002808D00023114AE95C01331180D9B259
:1004900002328C42F8D8C0220134E3B25B009200F1
:1004A00013430CE01F24E4B20028EBD1F3E7064B22
:1004B00002221968054801F0F5FBC1239B0004489E
:1004C000038070BD0020FCE7500F00203E18002084
:1004D0003C180020094A83009A1810B5146840227D
:1004E000544080322240064CC000A44663441A6047
:1004F000044B9C466044416010BDC04604C00140AE
:1005000004D00140004001400123D0228340120664
:1005100093629361094A83009A18116840225140FE
:1005200080320A400649C0008C4663441A60054B7D
:100530009C460523604443607047C04604C00140A8
:1005400004D00140004001408023DB051868000F03
:100550007047C0460FB400B5084883B001F024FDD1
:10056000049B002B07D005A91800019101F0A8FBFE
:10057000034801F019FD012001F0BAFB9C3A00107C
:10058000AC3A001070B5EFF3108C72B60D4D2B68BD
:10059000002BFCD0BFF35F8F0724CB08C618C05CCC
:1005A00001230C40A3401C000440034207D1184320
:1005B0003070BFF35F8F2C608CF3108870BD10001B
:1005C000FFF7C8FF2C0100D0F8B54746CE46884655
:1005D00080B5EFF3108C72B61C4D2C68002CFCD04B
:1005E000BFF35F8F9A4222D807210126894602E095
:1005F0000132934218D34D4637001540AF40D4081E
:100600000119045D2742F3D110003C430C70BFF385
:100610005F8F00220D4B1A608CF3108800280EDBD0
:10062000C0BCB946B046F8BD01204042EFE7BFF379
:100630005F8F00232B608CF31088012040424346DB
:10064000002BEDD00898FFF785FFC0462C0100D0A5
:10065000044A1078431CDBB2172B00D91023137007
:100660007047C046600F002010B5064B064C82B0A4
:100670000100009318221F232000FFF7A5FF02B0FE
:1006800010BDC046B03A0010E81A00200021044B0B
:10069000044ABFF35F8F02C39342FAD17047C0464A
:1006A000000100D0800100D0054B064A1360064AC5
:1006B000136053609360D36013615361936170471B
:1006C0008080808000E400E004E400E01F23184004
:1006D0001E3B8340002905D0C021044A49005350E5
:1006E00013607047802201498B50FAE700E100E077
:1006F00070B50D00EFF3108672B60F4A1368002B29
:10070000FCD0BFF35F8F0D4B10309B6884001B59EA
:100710000B4A934203D09D4201D001F0BFF8074B32
:100720009B681D51BFF35F8FBFF35F8F0022024BA9
:100730001A6086F3108870BD240100D000ED00E03F
:10074000CD010010F0B557464E46DE464546E0B5B1
:1007500085B0060000911700EFF3108B72B66A4A5D
:100760001368002BFCD0BFF35F8F0025674B5D57EC
:100770009A46002D00DAA9E06B00654C01935B19E5
:100780009B009846A146C1444B4652469B79103681
:100790001370604BB6009B6899590B1B2F2B33D9F4
:1007A0005D4B994200D0ACE0019B42469C465B4BBE
:1007B0006544AD0063535A4B0232A218043B9B1AA6
:1007C0001B05584A5B0D651913436B80564B01217D
:1007D000AB80FF23AB71009BEF71AB604B460B43CB
:1007E00019004C4B9B689951BFF35F8FBFF35F8F2C
:1007F0000022454B1A608BF3108805B0F0BCBB4655
:10080000B246A946A046F0BD01200A008243D37932
:100810008C46BB4231D84546130044491B1B5B4103
:100820005943090D3D4B63533D4B02356519043B5C
:100830005B1B1B053B4D5B0D2B43AA464D466B8056
:100840000425AC465546E044131F44441B1B1B05BE
:100850005B0D1D434B46997100999D8099604946F7
:10086000DF71334B01431360BBE75800C0188000B1
:100870002018C179B9422FD902000623D356002B84
:10088000F3DA02932B4B61460393131D9A4604231C
:100890005B429C46E14450464B461B1A1B055B0DD0
:1008A0009C46204B9571984663464046034393808F
:1008B000019B5A199200039BA418A380029B1C4A17
:1008C000A371009B2260E771A3608AE700F0E6FF56
:1008D000002553465D574FE7908802934005131D4E
:1008E0009A46031561469C464046D444634604300C
:1008F0002018181AE0230005400D1B02184303902E
:10090000C5E700F0CBFF4FE7240100D05C1F0020BB
:10091000640F002000ED00E0CD01001000A1FFFFFA
:10092000940F002000E0FFFF01BDFFFFAAAA000016
:100930000148804701BD0000F0B5DE4657464E46EF
:100940004546E0B50C0083B0EFF3108872B6634AF9
:100950001368002BFCD0BFF35F8F614B61499A682D
:10096000030010339F00D55901938D4243D0A54217
:1009700054D05D4EAA1B2F2A3DD85C4B9B461B686A
:10098000994601231A009C4682404B4613401F2281
:1009900099466346024093409A4680225B46504601
:1009A0009850BFF35F8FEFF305839B46002B37D042
:1009B000019B5B4501D000F071FF01232A009A439F
:1009C0009068844208D176E04B005B189B00F318D6
:1009D0009868844236D01A00062151560029F3DA6D
:1009E000844254D04B46002B27D0C02251463F4B67
:1009F0005200995019603A4B9B68DD51BFF35F8FED
:100A0000BFF35F8F0022354B1A6088F3108803B064
:100A1000F0BCBB46B246A946A046F0BD0D00EAE7D1
:100A20002A0063469A4390688442D5D10620105626
:100A3000130000280ADA0D0031E0802351462B4ACA
:100A4000D150D8E706201856002821DB42001118A3
:100A5000890074188B46A1689960E179D9710621E3
:100A600061569971002924DBA488F11A64052415C4
:100A70005C44091909051E4C490D2143998013183E
:100A80001C4A9B001178F31899711070AAE71300A3
:100A90005946002914D1FF319171174991801549A8
:100AA0000A789A71154A9B1B5B415A43120D0A70D2
:100AB00098E71149E2E70620105613000028C5DA2E
:100AC0000F4A1049D21A083A5002400D014399804A
:100AD0000D4952080A43DA8084E7C046240100D059
:100AE00000ED00E0CD010010640F002000E100E007
:100AF00000E0FFFF5C1F002001BDFFFFAAAA00006D
:100B00009E0F002000F0FFFF00F8FFFF70B50124EA
:100B10000443EFF30581EFF3108C72B6214A13689A
:100B2000002BFCD0BFF35F8F1F4B05001F4AED1A4F
:100B30006D416A43120D1E4D8900AE6852B276585F
:100B4000A6421CD00621595691421CD0122159565A
:100B5000914222D01E215956914220D02A21595625
:100B60000324914210D0134B19781A708171BFF38E
:100B70005F8F00220B4B1A608CF3108870BDAB683E
:100B80000D4C5C50EFE700246100091989005B18E7
:100B9000FF21997109499980E5E70124F4E70224CE
:100BA000F2E7C046240100D0640F0020AAAA00008A
:100BB00000ED00E05C1F0020CD01001001BDFFFF33
:100BC000024B9C466144890001607047400000343C
:100BD00070B5114C114DAC420FD2FF262368002B8B
:100BE0000CD0FFF735FD01002000FFF7E9FFA680DC
:100BF000BFF35F8F0834AC42F0D370BDFFF728FD20
:100C000001002000FFF7DCFF2671BFF35F8F08347F
:100C1000AC42E3D3F1E7C046701100207811002008
:100C200010B50400FFF714FD01002000FFF7C8FF16
:100C3000FF232371BFF35F8F10BDC04610B50400C2
:100C40000120FFF711FD034BC3189B002360BFF386
:100C50005F8F10BD400000340A4B1968EFF310801D
:100C600072B60A68002AFCD0BFF35F8F1B68BFF31F
:100C70005F8F00221A6080F3108840BF002000219F
:100C80007047C046481F0020F0B5DE4657464E4626
:100C90004546E0B587B0EFF30583032201251A40EE
:100CA000954091008846A946B34B03925C58B34BDC
:100CB0001D60B34B04934B46B24843630823E55E83
:100CC000002D37DAA3881BB2002B00DBADE0A3793F
:100CD000002B00D0EEE00823E05E002820DB43007C
:100CE00062691B18DB00D3189E68DD68731C00D195
:100CF00011E1A44801004144826A0B69B71A9B1AAA
:100D00009F4215D30123026A039883401A420FD0F1
:100D10009C4800F047FB8D4202DCCCD18642CAD908
:100D200040BF07B0F0BCBB46B246A946A046F0BDE6
:100D30000E61EDE762696B0092465B19DB009A4435
:100D400053469E68DF6800F02DFB8F42BADC00D16D
:100D500003E1002F00DAE8E05246534652691B696E
:100D60009346049A934200D1D9E052460821605E2E
:100D70005288000459461043984700900191009909
:100D8000019A0B001000134300D1CEE013000A00BB
:100D9000B61A9F41002806DB7A4800F003FB009E4C
:100DA000019F36184F4153469E60DF6000229A5ED5
:100DB000002A00DA86E7530099186069C9004118D3
:100DC00002938B68C9689B46B94200DD7AE702D17D
:100DD000B34200D976E708239C46A44405956546AE
:100DE0002281A446029B2C0006E053009918C900FA
:100DF00041188D68C968AB469B18DB00C318B9421F
:100E000006DC00D1B3E01C000023E25E002AECDA2D
:100E1000230064469C4653461A806346059D1D8008
:100E2000A3881BB2002B00DA51E72269EFF310818F
:100E300072B61368002BFCD0BFF35F8F0123A78825
:100E40005B42A3803FB22369BFF35F8F00221A6029
:100E500081F31088002F00DA39E7230008332200DD
:100E60009A4666697B00DB19DB00F31899685046E7
:100E70008C460824115FDD68002910DB029306E030
:100E8000AB4244D00023E15E2000002906DB4C0089
:100E90006418E4003419E368AB42F1DD029B07807B
:100EA00000201F5E1980002FDCDA1400A379002BCC
:100EB00000D110E70023A37126000823E15E083665
:100EC0004B1C00D12CE70800A246656902E03E00F9
:100ED0004B1C1AD04B005B18DB00EF180A008C4645
:100EE000E95E7B881BB2002BF1DA01235B42DC1741
:100EF000BB60FC60824205D0534631801B893B8039
:100F000053461A8160464B1CE4D15446E5E6A3687B
:100F10006345B7D9C2E76B1C00D0EAE6F8E65B464A
:100F200058461B69984700281BD153461B882269E5
:100F30002381EFF3108372B611680029FCD0BFF350
:100F40005F8F514662880A8022696580BFF35F8F98
:100F50000021116083F31088B4E6864200D8F8E6D9
:100F6000B0E65B461A685B680092019307E7B345F9
:100F700000D848E74CE7C0462C1F00203C700540D5
:100F8000890C00100040054070B52E4C2569002DDD
:100F900004D00A212C48FFF713FE70BD2B4E03210D
:100FA000300000F0F5F9E660FFF752FB284B032212
:100FB0009C46D02322701B061B6801216370254BC1
:100FC0006044A3600F238000206102206380636976
:100FD0004942A18019800231198647311D83585238
:100FE00018315A5275325C3999521832013199527E
:100FF000183201319952183201319952083518329C
:101000009D520231183299521832013199521832D8
:1010100001319952183201319952183201319952E5
:101020001832013199520C4B0C49DC6001303562A9
:10103000FFF75EFB01210320FFF748FB084B1D6013
:10104000A7E7C046AC0F0020481F00200040054025
:1010500040000034FFFF10002C1F0020890C0010FE
:101060003860054070B501000469EFF3108C72B66A
:1010700020680028FCD0BFF35F8F02200D5E4C6912
:1010800068004019C00024180869002D36DB268846
:101090004E80BFF35F8F002606608CF31088E360FC
:1010A00063880498013320615B0405985B0CA2609F
:1010B00060611A1C002B1FD093B228046280184371
:1010C0000A69EFF3108C72B61368002BFCD0BFF3E3
:1010D0005F8F8B8823808D800B69BFF35F8F002229
:1010E0001A608CF310880B7801329A40CB6808495B
:1010F0008C4663441A6070BD0122DDE7BFF35F8F49
:10110000002303608CF3108801204042F3E7C046BF
:101110003C20000010B543890A1493421ADD5300A5
:101120009B184269DB00D3180469EFF3108C72B688
:101130002268002AFCD0BFF35F8F5A88090494B25A
:10114000090C8A4208D00369BFF35F8F00221A603E
:101150008CF31088002010BD8022120214435C80A2
:10116000012302698371BFF35F8F002111608CF34B
:101170001088044902788C469340C268012062447A
:101180001360E8E73C200000F0B5C64600B582B029
:10119000040000F00FF9FA2206000F0020000023DF
:1011A0000021920000F00EFD8019794104000D1E0F
:1011B00002DA01242E4D644206267642F7173619CC
:1011C0006F41AF4214D811D000F0F4F832003B0068
:1011D000121A8B41002B15DC002B46D02000290071
:1011E00000F026F902B080BCB846F0BDA642EBD9AB
:1011F0000026002700F0DEF832003B00121A8B4177
:10120000002BE9DD00F0D6F832003B00121A8B41CA
:10121000002B0ADB00230193164B32000093164883
:101220003B00FFF71FFF0130D8D000233900B04644
:101230009C46124A1248536A994204D8966A464517
:10124000CCD29942CAD10668EFF3108772B63368E0
:10125000002BFCD0BFF35F8F0368BFF35F8F664640
:101260001E6087F3108820BFE5E7002AB6D0C9E7E3
:10127000FFFFFF7F590C0010AC0F0020004005401D
:10128000481F0020F0B557464E46DE464546E0B5BD
:1012900006000F0085B0EFF3058399468B46002BBF
:1012A00012D0384900204B6ABB4206D38A6ADB1B46
:1012B000591E8B41B2424041184305B0F0BCBB46B9
:1012C000B246A946A046F0BD2F4B9A46DB68984629
:1012D00053461B784046039300F064F84246039B54
:1012E000040004339B009B580D001B1A390030008A
:1012F000001BA941894510DC0DD020BF214A0020E8
:10130000536A5B45D9D3926ADB1B591E8B41B242AB
:1013100040411843D1E78342EFD900F04BF8320047
:101320003B00121A8B41002B1ADB00230193174B51
:101330003200009350463B00FFF794FE011E0FDD84
:10134000104B5A6A5A451BD39B6AB34216D3504678
:10135000FFF7E0FE0B4A0020536A5B45ADD3D2E7AE
:10136000084A0020536A5B45A7D30020926ADB1B22
:10137000B24240415A1E934118439EE75A45E6D176
:1013800020BFE4E700400540AC0F0020590C0010DE
:1013900010B5024A0248FFF7F5F810BDCC3A00102C
:1013A000EC1A00200300416A0A00986A596A8A42CE
:1013B000FAD17047034B596A0A00986A596A9142F8
:1013C000FAD170470040054070B504000D00174A7F
:1013D000536A1900966A536A8B42FAD13000190099
:1013E00024184D41AB4216D813D0104B2A005B6A2B
:1013F0009D4203D90D494B6A9342FCD3934207D1D6
:101400000A4A02E0516A994202D1916AA142F9D393
:1014100070BDA642E9D9054B5B6A1C005A1CEFD08F
:10142000012201246442E5175242E3E700400540EF
:10143000064A536A9942FCD807D1044B02E05A6A23
:10144000914202D19A6A9042F9D870470040054013
:10145000F8B5040006200D0000F078F9002844D00B
:10146000374B3849E3185A1E9341802212049446A0
:101470005B429B0D344A9B0563441360334A1360FF
:1014800018000A689043FBD12D4B314AE3185942AA
:101490004B4180215B0049000620995200F056F92B
:1014A0002900C00000F000FB0130C3091ED1402715
:1014B00001226262A362266BF30722D4E36A254B02
:1014C0000620E51800232B60266300F03FF9390061
:1014D000800000F0E9FA7023E26A5A400E331340AC
:1014E0002B601D4B23630323A364F8BD1B4A934267
:1014F0001ED900231A4A1B4F6262A362266BF307B0
:10150000DCD5194B144AE3181A60656AA36A0620F1
:10151000AD01ED1800F01AF9144900F0C5FAAD025A
:101520000100280000F0C0FA0021FFF74DFFC5E7D9
:101530004006800E9F011A003F180300B9E7C0461D
:101540000080FCBF08C0004000E0004000F0004008
:101550004C1F00202C10000001030000FEFF0000C3
:10156000FFFF0000C0FF3F00303000004E0E0000C3
:10157000F8B5DE464E4657464546E0B58B46050073
:101580000A991800160000F08FFA0A9B6C001F02DF
:10159000324B64199C46A4006444636881469F42B0
:1015A00000D967602B1FDBB29846012B30D9C023CE
:1015B00080229B01E31812011A60294BAD00595992
:1015C0009A4600291BD17301E026226853401E4031
:1015D000802342465B01E3181E60012A30D9802334
:1015E00080229B01E31812011A6053464A46676045
:1015F0005A51F0BCBB46B246A946A046F8BD586950
:1016000000F052FA013043001B18033BFDD2DAE729
:101610005B46012BCBD1C02303229B01E3181A6048
:10162000023AA3681A42FCD07301E0262268AD009A
:1016300053401E4080230A4A5B019246E3181E6015
:101640005A462168514003220A401A6001225B4633
:101650009A40A3681A42FCD0C1E7C046008000400F
:10166000F01A0020F0B546464F46D646C0B51F00DA
:10167000344B44009C462418A400644463688846A4
:101680001600FF2B02D880235B006360031FDBB2D0
:101690009A46012B30D9C02380229B01E318120106
:1016A0001A60294B85005959994600291BD17301AD
:1016B000E026226853401E40802352465B01E31817
:1016C0001E60012A30D9802380229B01E318120179
:1016D0001A6080235B0063604B465F51E0BCBA46F2
:1016E000B146A846F0BD586900F0DEF9013043006C
:1016F0001B18033BFDD2DAE74346012BCBD1C023B5
:1017000003229B01E3181A60023AA3681A42FCD034
:101710007301E0262268850053401E4080230A4A58
:101720005B019146E3181E60424621685140032246
:101730000A401A60012342469340A2681342FCD03B
:10174000C1E7C04600800040F01A0020014B800035
:10175000C0587047F01A0020F8B5040021481E0058
:1017600017000D0000F0A0F90100380000F09CF90E
:10177000069B36041B031E432368002B20DB1A4BF9
:101780001A49E3185A1E93418022920194465B4203
:101790001B0B174A1B0363441360164A13601F0098
:1017A0000A689743FBD1144B2560E2182123A060FF
:1017B00013602368002BFCDA0823E6601360F8BD91
:1017C0003F2322681340AB42D9D1A3681B051B0DF0
:1017D0008342D4D1EE22E368D2021340B342CED189
:1017E000EDE7C046001BB7000040FDBF08C0004049
:1017F00000E0004000F00040043000008023024A76
:101800009B000B43D362704700800540002310B556
:101810000100988A1B8B984710BDC046162310B54F
:101820000100188802331B88984710BDF8B5474659
:10183000CE4680B50F1E18D01423994604330400F9
:101840000025012698464B461888434621681B8888
:10185000984701C4431E984101350640AF42F2D17A
:101860003000C0BCB946B046F8BD0126F8E7C04616
:10187000AA23064A1B0113608D235B00D360044931
:10188000044B19605368002BFCDA7047004002409B
:1018900000B0FA00006002407047C04610B5014831
:1018A000FEF758FEF03A001070B5074D074EB542EE
:1018B00009D20024013E761BB60808CD98472300C4
:1018C0000134B342F9D170BD303A00106C3A0010C7
:1018D000054B064A06491A60064A074B1A60100073
:1018E0000B689843FBD1704700E00040BFCDFBFE82
:1018F00008C00040FE7F3C0000F00040044BDB6C61
:10190000002B03D18022034BD2021A607047C046DD
:10191000000011504C201150044A054B1A60054A32
:101920001368DB018033FBD17047C046FFFFFF0126
:1019300000F0004008C000404022034B9A675A67FD
:101940001A67DA667047C04600F0014010B5FEF72E
:101950009DFE10BD70B5044D044CA968C022200046
:1019600000F0A0F9AC6070BD00ED00E000000020C8
:10197000002310B5294C82B0A367FFF779FF01223D
:10198000274B1A60636C012BFCD10322254B1A6094
:10199000224A936B012BFCD1013300930121224A8F
:1019A00022480433FFF7D8FE052301210093204A83
:1019B0002048FFF7D1FE0022022104201E4BFFF732
:1019C00051FE0022012105201C4BFFF74BFE002297
:1019D000002107201A4BFFF745FE002200210820B6
:1019E000174BFFF73FFE8023DB000093002200210E
:1019F0000920134BFFF7BCFD0022104B00210620ED
:101A0000FFF730FE0420FFF7A1FE0E4900F04CF86E
:101A100001000020FFF7F2FE02B010BD0080004080
:101A20003CB0004030B00040002F685900800240B8
:101A3000008C864700C00240001BB7004059730766
:101A4000006CDC0240420F0001480421014B1847A2
:101A5000D00F00202D180010124A936F9B0815D24A
:101A60009066D166002905D0FFE7FFE7FFE7516FD9
:101A7000106F704704B580210906C2175140002835
:101A800000D0C84301F094FF002104BDF0B5146EEE
:101A9000556E576F166FFFF7E3FF1466556657676D
:101AA0001667F0BD000000D0114A936F9B0813D257
:101AB00010665166002905D0FFE7FFE7FFE7516F89
:101AC000106F704704B5002801D00020C04301F01A
:101AD0006FFF002104BDC046F0B5146E556E576F00
:101AE000166FFFF7E5FF1466556657671667F0BD7A
:101AF000000000D0132370B51D78012D19D014DD1E
:101B00001F48FFF78BFE06001E48FFF787FE1E4C9E
:101B100080223100200000F0C5F8022D2DD01B4896
:101B2000FFF774FE1A4B186070BD1A4B164CA36475
:101B3000F5E7184B144C23606360A360E3602361F6
:101B40006361A361E36123626362A362E36223636F
:101B50006363A363E36323646364A364E36423654F
:101B60006365A365E36523666366A366E36623672F
:101B70006367A367E367A364D1E7064BA364CEE77B
:101B80005344000053460000F81200204C3300007C
:101B9000441F0020991B001007B5604601880A0AFF
:101BA0000230DF2AFAD1C9B2820804D30288408801
:101BB0000004104300E00068014A5050039007BD44
:101BC000F812002051434343C9188C46110C83B2CC
:101BD0004B4310B4040C614392B280B25043624351
:101BE0001C041B0C001910BC59411304120CC01822
:101BF0005141614470470000132310B512481C780E
:101C0000FFF70CFE0100012C0AD003DD80220F48F3
:101C100000F048F80E48FFF7F9FD0E4B186010BDB4
:101C20000A4C5422200000F03DF80B4B6365A3657D
:101C3000E36523666366A366E36623676367A3675A
:101C4000E3672362E361E5E753460000F8130020F1
:101C50004C330000441F00205D1C001007B5604697
:101C600001880A0A0230DF2AFAD1C9B2820804D3F5
:101C7000028840880004104300E00068014A505088
:101C8000039007BDF813002001480421014B1847B9
:101C9000E00F00202D180010014B1B6818470000B2
:101CA000E00F0020014B5B6818470000E00F0020A8
:101CB00010B5002800D110BD00F02CF9FBE7C0469C
:101CC00010B5094A0300146884B0002C08D0012222
:101CD00000910648524203A9A047012004B010BD5C
:101CE00000F062F90020F9E7241F0020B11C001069
:101CF00000BEFDE710B5FFF7FBFFC04670B5FFF76C
:101D0000D3FD074D074EB54209D20024013E761B94
:101D1000B60808CD984723000134B342F9D170BD0D
:101D20006C3A0010783A0010030010B5080011005A
:101D30001B68984710BDC046F0B5C64600B5437D48
:101D400007000C001600002B46D0002A17DD0B7888
:101D50000A2B24D000239846012E13D001252900F8
:101D6000635C01350A2B26D0B542F8D1464509DC23
:101D7000A419013C23780D3B5A4253413B7580BC6A
:101D8000B846F0BD4346E018A419F11A013C3B687F
:101D9000984723780D3B5A4253413B75EFE7037D4B
:101DA000002BD7D102210F483B689847012EDFD086
:101DB00001239846D2E7631E5B5C0D2BD4D0884587
:101DC00004DA4346C91AE0183B68984702210548DF
:101DD0003B68A8469847C7E703681100200098476A
:101DE000CDE7C046303D0010F0B54546DE464E46D4
:101DF0005746E0B583B091461C0080460D00FFF7C2
:101E0000D9FA0023304A12184B41002B02DA012282
:101E10002E4B52422E4908008A4601F0E1FD070090
:101E20006B1C03D1404601F01DFD0500002C27D09E
:101E3000284E294B1C68002C18D04B46002B21D172
:101E4000264B994602E02469002C0FD02368002B12
:101E5000F9D04B461B68002B01D09C42F3D12000E7
:101E60002A004146B0472469002CEFD1002F26D12B
:101E7000280003B0F0BCBB46B246A946A046F0BD60
:101E8000174ED6E7154B99460A239B4602E0246974
:101E9000002CEBD02368002BF9D04B461B68002B9D
:101EA00001D0A342F3D12A0041462000B0476B463F
:101EB0005A462000DA71D91D0122B047E7E75046A3
:101EC00001F06EFDD4E7C04640420F00FFFFFF7FE8
:101ED00070110020391D0010181B0020201B00204D
:101EE000291D00100A4A1368002B05D10CE01A00C6
:101EF0001B691032002B07D08342F8D1002902D190
:101F000018691060196170470029FCD01060FAE769
:101F1000181B0020F0B5CE46474680B583B06B460F
:101F20000600DD1D2870FFF745FA0023194A121834
:101F30004B41002B02DA0122174B5242174908008D
:101F4000884601F04DFD164B81461C68002C14D0CC
:101F5000144F02E02469002C0FD02368002BF9D025
:101F60003B68002B01D09C42F4D1200001222900C3
:101F7000FFF7E2FE2469002CEFD14B46002B05D180
:101F8000300003B0C0BCB946B046F0BD404601F0D9
:101F900007FDF5E740420F00FFFFFF7F70110020B3
:101FA000181B0020201B002070B5040001F05AFC13
:101FB00001230100050001222000FFF715FF084B57
:101FC0001C68002C06D06368002B05D09847246954
:101FD000002CF8D1280070BD2469002CF3D1F9E75A
:101FE000181B0020F0B5002915DD0E4B0D271A68CF
:101FF0000D4B0E4CD3185D426B41451820215B0000
:102000001E5F0478A64207D093691942FCD10130C3
:102010001460A842F5D1F0BD93691942FCD1176054
:10202000F2E7C046541F00200080FCBF4C1F002078
:10203000204B70B504000D1E1E682ADD0020102103
:102040001D4B013C1A689369194214D10130936900
:102050001942FCD1136823548542F4D1002E08D0D4
:1020600050239363516B183B0B4014498C466244D8
:102070001360280070BD002E08D050239363516B6D
:10208000183B0B400D498C46624413600028F1D187
:102090000CE0002E0AD05022074B1B689A63596B44
:1020A000183A0A4005498C4663441A6003204042AE
:1020B000E0E7C046E01A0020541F00203410000062
:1020C000064B10B51B68002B06D00021044A12688D
:1020D0009163044A1068984710BDC046E01A00207A
:1020E000541F0020E41A00200822034B19688B6952
:1020F0001A42FCD17047C046541F0020F8B51A4F51
:102100001A4B3A680500D31858424341184E14330D
:102110001C003368002D02D0002B0FD0F8BD002B1F
:10212000FCD0002120009563FEF7D0FA2000114971
:10213000FEF702FC104B35601D60EFE70E4B2000F0
:1021400019600C493560FEF7D3FA01212000FEF733
:10215000BDFA50223B689A63596B183A0A40074906
:102160008C4663441A60D9E7541F00200080FCBFEE
:10217000E01A0020C1200010E41A002034100000F2
:1021800070B50C4E0D001C003060002A03DB0221EC
:102190001000FEF79FF9002C03DB02212000FEF760
:1021A00099F929003068FFF753F901210248FFF738
:1021B00099FE70BD541F0020F00F0020F8B500F00C
:1021C00053F90C23194DFF22AB6705201849FEF780
:1021D000B9FA184C402200212000FFF75DFD40278E
:1021E000002301262121144A66702783A260136010
:1021F00063545F31618445396354104A1049636008
:10220000E2602787A1620B606362E26201F0F8FB83
:1022100080239B052E64EB6490230A4A0120EA5038
:102220008022094B5202DA64F8BDC046000011500A
:1022300015030020241B00208400105000011050C2
:102240008000105010D001000020115010B5012165
:102250000520FEF73BFA10BD10B500220021024810
:1022600000F022F910BDC046441B002080219022BE
:10227000034B8902995080225201DA647047C046AC
:1022800000201150044B1970002904D080219023A4
:10229000024A8902D1507047591F00200020115076
:1022A0000B785B0602D14B78052B00D070478A78FB
:1022B000014B1A60FAE7C04600001150F0B5C6465F
:1022C000C87800B58007830F1800012B60D08F7885
:1022D0000A794B797F213940FC091B024E001343D8
:1022E000334D32195201AA18977001276740577071
:1022F00000275B055B0DD7701383D076B846CA0004
:10230000012C32D02B4FBC468F016244BC46AC44FA
:102310006746BA6047461760002932D0264AC9008E
:1023200090466246414451603F223F339343022826
:1023300037D0224937190A687F01D3180B6020492A
:10234000EF19FA608B422ED836197601AD19EB7E63
:102350001C499B064A4013438022120613436A68B5
:102360001360012080BCB846F0BD174FBC468F01FA
:102370006244BC46AC446746BA62474617600029CF
:1023800008D1002364012C196360104BE360E8E777
:102390000020E7E70B4AC90090466246414451627B
:1023A000C2E75B00C5E7FFF779FAFA68CCE7C046F9
:1023B000241B00208400105004001050281F00200F
:1023C000FF0F1050000010508000105000011050FE
:1023D00010B501F015FB10BD10B57F200C0020409A
:1023E0004000E409110000191A00034B4001C01815
:1023F00000F05AF8012010BD241B00207F23180094
:1024000000B5084083B00B4204D14B424B41084A0F
:10241000013393668022C9094000064B40184001F1
:102420000021C018120101F0F3FA03B000BDC0464C
:1024300000201150241B00207F22130010B50B40F8
:102440000A4200D110BDC9095B005B1804485B015A
:10245000C018002300220349C37001F0D9FAF1E744
:10246000241B0020FFF7FFFF80220A4B520410B507
:102470001A60094B09491A6010000B689843FBD198
:102480008022002152010648FFF706FC0922054B75
:102490005A6710BD00E0004000F0004008C0004056
:1024A0000000105000001150002310B5C38201330A
:1024B000828283760161040001F0B2FA002804D020
:1024C00080219023074A8902D150200001F078FA38
:1024D000002802D00123237710BD200001F088FAE4
:1024E000FAE7C04600201150002070477047C046F0
:1024F0007047C0460020704700207047002070479A
:10250000024B5878431E9841C0B27047C41800204F
:10251000024B18784007C00F7047C046C41800200F
:10252000094A10B513785B07DC0F002B05DA182376
:1025300012781340182B02D00024200010BD034B4A
:102540001878FFF793FEF8E7C41800202410002045
:10255000F0B5D6464F464646C0B52D4B07009A46C5
:102560001B780E00FF2B4DD100293ED000215422B4
:102570002848FFF791FB0022274C284B20001A70B7
:10258000FEF74EFB264B1C60264C2000143CFEF749
:1025900055FB200001F0DAF8234B244D1C60244B3E
:1025A000002B04D0280000E000BF224B1860224A14
:1025B000002491461F4A2B7890460EE043461B6844
:1025C00062019B18002B10D05B68002B0DD0984740
:1025D00001342B78E4B2A34209D3A342EED8E31A24
:1025E0005B014B445B68002BF1D100200BE05346AC
:1025F000310038001F70FFF7E1FD0028F5D03800EA
:10260000FFF724FE0120E0BCBA46B146A846F0BD63
:1026100024100020C4180020BC1800205A1F0020DD
:10262000181900201C1000201C190020581F002021
:1026300000000000E4170020DC3D0010F0B5DE468D
:1026400057464E464546E0B5CA4B8FB003931B78BC
:10265000FF2B00D146E1C84BC84E9B465F46C84B96
:102660000BAC0293C74B019335686A69EFF3108195
:1026700072B61368002BFCD0BFF35F8FA9612800EE
:10268000210000F0C3FF6A69AB69BFF35F8F0021CF
:10269000116083F31088002800D123E16378082BB0
:1026A000E2D89B00FB589F466368002BDCD0A068F3
:1026B0009847D9E77F222179B14D0A405300EB18A2
:1026C0009846C809804440460123303005799D432F
:1026D0000571057903339D430571002A00D108E196
:1026E0004346A94A1B7D1278934200D3F8E0A74ADB
:1026F0005B011568ED18002D00D1F3E0A368627945
:102700002078AD69A847AFE7A14A1378002B00D124
:10271000E8E01378013BDBB213701378002BA3D1F0
:102720000122974D01212B78042013432B70342371
:10273000EA5C8A43EA54EA5C8243EA540133EA5C85
:102740008A43EA54EA5C8243EA542378002098469C
:1027500000F05EFC602223791A40602A00D1F3E089
:10276000402A00D1F9E0DB06DB0E012B00D117E196
:10277000022B00D1CCE0002B00D0E5E0202A00D1D4
:102780000FE2002A00D0DFE06379092B00D9DBE0FB
:10279000804A9B00D3589F46794D2B78DB0700D4A5
:1027A00062E7FDF705FE5FE7029BDB78DB0700D4FD
:1027B0005AE76068FFF79CFE56E7714D2B78DB0700
:1027C00000D451E728780007C00FFDF7FDFD4BE767
:1027D00023786C4A984693466B4B6C4A9946310075
:1027E00092463A0046464F460025914688461B7859
:1027F0000EE053461B686A019B18002B00D17EE057
:10280000DB683000984701353B78EDB2AB420CD322
:102810009D42EED3EB1A5B015B44DB6830009847C6
:1028200001353B78EDB2AB42F2D2554D5422002136
:102830002800FFF731FA1022FF21281DFFF72CFA9C
:1028400028002022FF21143046464F46FFF724FA85
:1028500000F0D4FB2379AB7006E723784B4A984607
:10286000494B924699463200BB46464600254F46A4
:1028700090461B780DE053461B686A019B18002B9D
:1028800041D0DB683000984701353B78EDB2AB4270
:102890000ED3AB42EFD8019AEB1A94465B01634426
:1028A000DB683000984701353B78EDB2AB42F0D29F
:1028B000029D542200212800FFF7EEF91022FF218B
:1028C0003548FFF7E9F928002022FF211430464659
:1028D0005F46FFF7E1F900F091FBFDF76FFDC3E6FE
:1028E000934213D00FB0F0BCBB46B246A946A046F7
:1028F000F0BDA3686279207800F09EFBB4E64646FE
:102900004F461F4DA4E746465F46E4E71D4DF5E6FA
:102910007023217A0B4217D1C80983460F330B402D
:102920005B0099461848EB185B441B7D0078834296
:1029300061D216485B01006882469A44002A00D1A1
:102940004EE15346002B5ED120780021FFF756FD63
:1029500080212078FFF752FD86E6104800F058FBF2
:10296000012140460CAAFFF7BFFD002800D07BE6FE
:10297000EAE7C04624100020343D00101C19002056
:10298000C4180020DC3D0010581F0020E417002070
:102990005A1F0020583D0010C8180020E9240010DC
:1029A000237A0F2BD0D8D54AEB181B791278934293
:1029B00034D3C9D1D24D686900F02AFB01214046C9
:1029C0006B690CAA9847002800D04DE660221500DC
:1029D00023791D401A42B7D163790A3B012BB3D842
:1029E00000F016FB63790A2B00D17DE140460CA96B
:1029F00000F09AFA38E6834200D0ECE0C04B9A46E9
:102A0000002A00D1ECE05346586900F001FB534620
:102A1000012140465B690CAA9847A6E7B94A5B01C9
:102A20001568ED18002DC6D18EE7A3799A466B780C
:102A30009A45DBD06B78002B00D028E153466B70B1
:102A4000002B00D120E150460138C0B2FDF704FD53
:102A5000002800D171E14378022B00D06DE1012202
:102A6000C179A9468B11491113400A403021120146
:102A70005B0113432A788A4313432B7009239B4637
:102A800083445D46B346C37882781B021343C31860
:102A900006939A4B04970593994B0893994B9A4642
:102AA000994B0993069BAB4200D849E16B78012210
:102AB0000B2B03D12B78EA78ED186B78042B00D020
:102AC00038E1069B00265B1B9BB20793059B170012
:102AD0001B7818E053461B6872019B18002B00D12D
:102AE00028E1290040461B69079A9847082803D91E
:102AF000079B834200D30BE1059B01361B78F6B29E
:102B0000B34200D216E1B342E4D8089AF31A9446CD
:102B10005B016344E5E76B780AAA02321370404612
:102B200001230CA900F016FA9EE5E3881A0AD8B230
:102B30000F2A00D908E775499300CB589F460CA887
:102B400000F06CFA4046A179FFF786FB02222B7851
:102B500013432B7088E5E388012B00D0F4E60822AC
:102B60002B78404693430CA92B7000F0DDF97BE5F0
:102B7000022029780AAB9A1C8B068908DB0F0140DA
:102B80000B431380404602230CA900F0E3F96BE5E8
:102B9000E388012B00D0D7E608222B7813432B7053
:102BA00024E7237A0F2B00D9CEE6544AEB181B7981
:102BB0001278934228D2534A5B011568ED18002D14
:102BC00000D1C1E6686900F023FA012140466B6933
:102BD0000CAA9847C9E6002A00D0B5E600239A4619
:102BE00062790220130004928343012B11D0002A42
:102BF00000D0A9E62B004B445B4430331B790AAA72
:102C00009B07DB0F0232BCE7934200D09CE63C4DB1
:102C1000D8E7E388002B12D1039B1878049B012B83
:102C200023D0FFF7EBFB4B460221EB185B4430331C
:102C30001A790A4301211A711A790A431A71534603
:102C4000002B00D110E5586900F0E2F9534601214C
:102C50005B690CAA40469847002000F0D9F935235B
:102C6000EB5CDB0700D5FFE4C0E6FFF7E5FB4B4676
:102C70000221EB185B4430331A798A431A711A79AE
:102C800004998A431A71DAE7FDF798FBAEE6002152
:102C90004046FFF7F7FA4046FFF79AFB00229346BB
:102CA000174AAB780592174A049306922A00134BF1
:102CB0005D46994693461B780EE0069B6A011B68A9
:102CC0009B18002B55D0DB68404698474B46013592
:102CD0001B78EDB2AB4238D39D42EED3059AEB1A86
:102CE00094465B016344EEE70AAB9A1C404601231D
:102CF0000CA9157000F02EF9B6E4C046581F00204C
:102D0000DC3D0010E4170020D8180020803D0010A2
:102D10003A000700002A3CD0AB789A18D2B204E0FF
:102D20000133DBB20E719A4233D04946C918087993
:102D3000FF28F5D05E464D46049F00236B7003E6E6
:102D40005E46049FFDF72EFB50E65D4654220021AF
:102D50002800FEF7A1FF1022FF21281DFEF79CFF8F
:102D600028002022FF211430FEF796FF049BAB7051
:102D700064E65D46FAE7FFF7BDFB021E00D1E3E51E
:102D8000D37891781B020B4340460CA900F0E2F87F
:102D9000EBE5330029003A00099800F01DFC059B83
:102DA000ED191B78B34200D37CE6C3E7FFF7A4FB21
:102DB000021E00D1C8E5404613780CA900F0CAF8FD
:102DC000D3E52189FDF74CFB021EF4D1BCE5022AB4
:102DD0000FD0FFF793FB021ED2D1B5E5FDF734FB10
:102DE000021E00D1B0E5122340460CA900F0B2F853
:102DF000BBE5FDF731FB021EC2D1A5E5F8B557468C
:102E00004E46DE4645460C00E0B516001F00002A7F
:102E10003CD0702398461E4B00259B461D4B9A467E
:102E20001AE05B461B78200099465346997800F0DB
:102E300095FB00281CD021004846FFF73FFA0028E8
:102E400016D0A378DA09012A19D00A9A013513702D
:102E50002378E418B54219DA6378052B08D1E378B2
:102E60009B079B0FBB4203D14246A3781A42D8D09E
:102E70000020F0BCBB46B246A946A046F8BD0B9A5E
:102E8000013513702378E418B542E5DB0120F0E743
:102E900024100020C41800200B007F2010B518401B
:102EA000DB0934334000044AC018044B1168C018D1
:102EB00000F02CFB10BDC04618190020C4180020DB
:102EC00070B57F240F480C4064000419CD096419C3
:102ED00030342079C00701D5002070BD0126257946
:102EE0000948354300782571FFF776FA0028F4D1B8
:102EF000012223799343237123790332934323716E
:102F0000EAE7C046C4180020241000207F22054BA9
:102F10000A405200C9099B185B1830331879C00762
:102F2000C00F7047C418002070B5094C0600082275
:102F300020000D00FEF7B6FE00238021E360A360B1
:102F40002B783000994300220023FFF7B9FF70BDB2
:102F500028180020F8B5CE4647469046254E80B545
:102F60008146082230000D001F00FEF79BFE4346FD
:102F7000B3600023F381EC79AB7924021C43231C5A
:102F8000BC4200D93B1C9FB2B381002C0DD0002F56
:102F900017D04246002A2BD0402F1BD89FB233783F
:102FA0007F2B1CD80021144A0FE080212B780022AF
:102FB000994348460023FFF783FFC0BCB946B0469B
:102FC000F8BD7F230022317899433B004846FFF744
:102FD00077FFF2E740239FB233787F2BE2D9064C8C
:102FE0003A0041462000FEF75DFE80212200ECE71A
:102FF0000020E2E728180020E817002010B514226E
:1030000000210248FEF748FE10BDC04628180020E7
:10301000014B18617047C0462818002010B5054CB8
:10302000010008222000FEF73DFE0023A360E360BC
:1030300010BDC0462818002070B5384C1D002378FC
:103040000600DA09C9098A4210D00020002D00D0FC
:1030500070BD21003000FFF723F92369002B03D056
:1030600022000321300098470120F1E77F2B06D88A
:10307000A068002834D02A002949FEF713FEE2890F
:10308000A1685219E38892B24919E281A160934282
:1030900014D03F2D12D9A389981A051C80B240285C
:1030A0002AD82078ADB27F2828D800219A4232D081
:1030B0001B4A2B003000FFF703FFC9E72369002BF1
:1030C00005D0220002213000984700280AD0802134
:1030D00023780022994330000023FFF7F1FEB7E781
:1030E0000020B5E700213000FFF788F9300080218B
:1030F000FFF784F90120ABE74025D2E79A4207D0D9
:10310000074C2A002000FEF7CDFD80212200D0E7E9
:1031100080210022CDE70022CBE7C04628180020FE
:10312000E81700207047C046012070477047C0462E
:1031300042000C4B1218920010B59B185C78FFF7F8
:10314000DFF9002801D1002010BDFFF7E1F90028C8
:10315000F9D1002CF7D02100FFF7D8FE0123584009
:10316000C0B2F1E7AC180020F0B54F464646D6464F
:103170001D000023C0B50C0008A9CB5600279846B7
:10318000002309A9CB560AA916009946CF57002853
:1031900005D00020E0BCBA46B146A846F0BD124BAF
:1031A000002059789A46FFF777FE0028F1D00F4BA0
:1031B000002C0ED142469A744A461E745D74DA742D
:1031C0001F75052351460A4A49780020FFF778FE0B
:1031D000E0E74246DA744A461C745E749D741A75C0
:1031E0005F750623EEE7C046AC1800207C1800206F
:1031F0008C18002010B50C2200210248FEF74CFD6F
:1032000010BDC046AC1800200120704710B50C223C
:1032100000210248FEF740FD10BDC046AC1800205A
:10322000F0B54B7906000D0083B0032B0AD1087965
:10323000C400241A1234A4B2944203D8194F7B78E4
:10324000002B03D00024200003B0F0BD09786918DA
:103250004B78212BF6D1B9600B780200C9187B1C82
:103260000193BB1C009330000323FFF7C7FD002828
:10327000E8D0AB79012B01D1EB79FB700123BB7155
:10328000AB78B9783B70BB68DA791B7A1B021343C1
:10329000BB800029D7D010233000034AFFF710FE6F
:1032A000D1E7C046AC1800209C1800201F23F0B5C1
:1032B00014001278050083B01340012B01D00020C8
:1032C0000CE05A4E207933789842F8D160231800E8
:1032D0001040134204D101290BD0012003B0F0BDEE
:1032E0002028ECD163780B2BE9D8514A9B00D358A6
:1032F0009F466378062BE2D1E378212B7AD0222BEC
:10330000DDD10020FDF7A4F821000200B3882800D9
:10331000FFF720FEE1E7012910D00329DDD1A178D4
:103320000020B171FFF7FEFED7E70129D5D1E17882
:103330000020F171FFF7F8FE0028C0D0210028001E
:10334000FFF7F2FDC9E701295ED00329C5D1E07975
:10335000A37900021843E278A178041C102800D950
:103360001024344BA4B2002907D0012805D91878BD
:10337000884202D1013C304BA4B200200094FDF7FA
:1033800061F8AAE70129A8D10123210028002B4ACE
:10339000FFF7E0FDA1E701299FD1012321002800CB
:1033A000274AFFF7D7FD98E7012996D1E379A0795D
:1033B0001B020343E278A178181C102B00D91020BF
:1033C00080B200292DD0012B2BD90126194F0138AD
:1033D000397080B27B1C00900020FDF731F8331863
:1033E0009BB2002B00D16AE73A0021002800FFF7CA
:1033F000B1FD72E7B268002A00D160E72100280021
:103400001378FFF7A7FD69E7E379A2791B0213435D
:10341000102B00D953E721002800064AFFF79AFD38
:103420005BE7044F00263B00D5E7C046AC18002000
:10343000FC3D00107C1800207D180020B2180020F0
:10344000B318002070B51B4D0400A8786E7882B0C8
:10345000884204D08E4216D0002002B070BD9BB2CC
:10346000864211D0144E002A17D100930021330058
:1034700000200232FCF7E6FF102332002000A9787A
:10348000FFF71EFDE9E79BB2002A0CD100201A00CD
:103490000A49FCF79FFF0120DFE7320002210020EC
:1034A000FFF744FEE8E700200121044AFFF73EFE53
:1034B0000120D2E7AC1800209C1800208C180020B6
:1034C00000B5030083B0002910D00020012B07D8DD
:1034D0000A78002A04D00C48C2540120012A01D0E5
:1034E00003B000BD1800FFF733F8F9E701236A467F
:1034F000002001A99380FFF72BF80028F0D00122CB
:10350000014B1A70ECE7C046B8180020037870B57C
:10351000DB0704000E00DD0F002B17D103785B07DB
:1035200001D5280070BD01213000494200F050FA59
:103530002378DB07DD0F002B0AD123785B0708D443
:103540000422237801251343237002E00025E8E7D5
:103550000025300000F024FAE3E7C0464379027901
:103560001B021343C2785B0592075B0D920F022A80
:103570001DD0032A0CD00020012A08D102394A426A
:103580005141124A9446614499424041C0B2704749
:1035900002394A1E91410E4A494211408022D2000E
:1035A00094460020614499424041C0B2EFE70229AD
:1035B00005D0002040229A424041C0B2E7E7054AC8
:1035C000981843425841C0B2E1E7C046FF030000EB
:1035D00040FCFFFF00FEFFFF8A1870B5914207D242
:1035E0007F264C78052C04D00C7809198A42F8D82B
:1035F00070BD34008D782C4064000419ED096355CA
:103600000C7809198A42ECD8F2E7C04670B504007C
:1036100000690E00002803D00121494200F0D8F9CA
:1036200025896089A288A9B283B2854232D3CD1A96
:10363000ADB2002D28D0AA4208D291422FD3891AC8
:103640008BB263819A4203D89B1A9BB29A42FBD9F0
:10365000E28821685204520C53433000C918FEF727
:1036600021FB63890125591C89B2A2888B420DD99F
:1036700000215200891A89B220696181002801D095
:1036800000F08EF9280070BD618989B25200914224
:10369000F2DBEFE75500ED1A4D19ADB2C9E7891815
:1036A0008BB26381CEE7C046F8B50400C0680E0057
:1036B000002803D00121494200F08AF92589208998
:1036C0006189A288ADB283B28FB2884229D3DB1B55
:1036D0009BB29A4209D8E779FF0906D1E068002831
:1036E00001D000F05DF93800F8BD2B0095421DD3E4
:1036F0009B1A9BB29342FBD2E28820685204520C80
:1037000053433100C018FEF7CDFA6B1C9BB2A28860
:103710009D4217D9002352009B1A9BB20127238197
:10372000DCE75100C91B5B189BB2D2E7E288206836
:103730005204520C53433100C018FEF7B3FA01355E
:10374000A288ABB252009342E8DBE5E710B5040073
:10375000C068002803D00121494200F039F92069EE
:10376000002803D00121494200F032F90023E0682B
:1037700063812381002801D000F012F9206900281C
:1037800001D000F00DF9012010BDC04610B5192080
:10379000FCF7BAFED0238022E1211B0692045A6274
:1037A0000448054B0022186049020123FEF7E8FC9B
:1037B00010BDC04600400340501F0020D02380228F
:1037C0001B069204002801D05A6170479A61FCE7F9
:1037D00010B5024800F004F810BDC0463C1F0020A0
:1037E00010B588B004000D2200216846FEF754FA97
:1037F0000D22002104A8FEF74FFA4B236A466846C3
:10380000137004A90D2200F0C3F81521082220002E
:103810006944FEF747FA08B010BDC0460022034BCA
:103820001B68983318605A607047C0462810002003
:10383000094B10B51C68094A983420686168084B28
:10384000FEF7C0F901220023801859412060616011
:103850004800400810BDC046281000202D7F954C20
:103860002DF4515810B583070AD00300032102E05C
:1038700001330B4205D01A78002AF9D1181A10BD6D
:10388000030019680C4A0D4C8A188A4322420FD152
:103890005968094A04338A188A43224208D1596870
:1038A000054A04338A188A432242F1D000E00133EA
:1038B0001A78002AFBD1E1E7FFFEFEFE80808080BF
:1038C00070B5074C074D641BA41005D0013CA30044
:1038D000EB589847002CF9D100F056F870BDC0465F
:1038E000783A0010783A001010B501000023002249
:1038F000002000F001F810BDF0B5C6461A4C00B526
:103900002568002D2AD06C681F2C2ADC002808D1DD
:103910000020631C0234A4006B60615180BCB84677
:10392000F0BD8827A600AE19F2510137FF37BC461B
:103930000122AC446746A2403F6890461743624666
:10394000176084277F00F3510228E1D12800424606
:103950008D30FF30036813430360D9E7034D2560C2
:10396000D1E701204042D9E7E0170020501600209F
:10397000034B10B5002B02D00248FFF7B5FF10BD76
:1039800000000000C1380010F8B5C046000000007B
:1039900001B40248844601BC604700BF9D0D002071
:1039A00001B40248844601BC604700BFE501002025
:1039B00001B40248844601BC604700BFCD0E002020
:1039C00001B40248844601BC604700BF110A0020D0
:1039D00001B40248844601BC604700BF5901002081
:1039E00001B40248844601BC604700BFC10000200A
:1039F00001B40248844601BC604700BFA10A002010
:103A000001B40248844601BC604700BF0D0200209B
:103A100001B40248844601BC604700BF510A00203F
:103A200001B40248844601BC604700BFE909002098
:103A3000D1180010FD180010491A0010891C001040
:103A4000F51A0010F91B0010711900101919001057
:103A5000391900104D190010D10B00105519001024
:103A6000890F001099180010A90600107139001074
:083A7000FD020010D137001027
:103A780054696E795553420054696E795553422002
:103A88004465766963650000000000003132333414
:103A9800353600000A2A2A2A2050414E4943202A56
:103AA8002A2A0A000A0000004E6F207370696E6CA3
:103AB8006F636B732061726520617661696C616206
:103AC8006C650000486172647761726520616C61A1
:103AD800726D20256420616C726561647920636C65
:103AE80061696D65640000004861726420617373E8
:103AF8006572740052656C6561736500626F6F74FE
:103B0800325F77323571303830000000312E3000A6
:103B1800322E312E310000007069636F0000000002
:103B28006D6F7573652D6A6967676C657200000053
:103B3800446563203331203230323500556E686178
:103B48006E646C65642049525120307825780A00EB
:103B5800657020253032582077617320616C72655A
:103B680061647920617661696C61626C650000004E
:103B780043616E277420636F6E74696E7565207873
:103B8800666572206F6E20696E6163746976652060
:103B980065702025303258004C4544000904000067
:103BA80009022200010100A03209040000010300FB
:103BB800000009211101000122EF0007058103100F
:103BC8000005000005010906A1018501050719E0A6
:103BD80029E71500250195087501810295017508E9
:103BE80081010508190129059505750191029501BD
:103BF80075039101050719002AFF00150026FF002B
:103C0800950675088100C005010902A10185020910
:103C180001A100050919012905150025019505755A
:103C280001810295017503810105010930093115EA
:103C380081257F95027508810609381581257F95AC
:103C48000175088106050C0A38021581257F950142
:103C580075088106C0C0050C0901A101850315007E
:103C680026FF0319002AFF03950175108100C0057E
:103C7800010905A101850405010930093109320945
:103C880035093309341581257F95067508810205A4
:103C9800010939150125083500463B0195017508CC
:103CA80081020509190129201500250195207501B2
:103CB8008102C0001201000200000040FECA044058
:103CC800000101020301000006005250D3F07542C2
:103CD800FC3A001006005250E182887F043B001035
:103CE800060052503ABCA911143B0010060052506D
:103CF800ABB36053183B001006005250BBFF3CB6F4
:103D0800203B001006005250861C0302283B00107E
:103D1800060052505422A29D383B00100500525014
:103D2800DE65F468204F00100D0A000068260010B8
:103D3800D02700105A280010A8270010BA27001012
:103D48009827001008270010B4260010A826001095
:103D5800702B0010562B001048290010902B0010D3
:103D6800482900103E2B00102A2B0010482900106B
:103D7800162B00102A2A001048290010DC2D0010EC
:103D8800CE2D0010C22D001048290010482900101F
:103D9800AC2D0010CE2D0010482900104829001025
:103DA8004829001048290010482900104829001007
:103DB80048290010762D00106E0B00206E0B002095
:103DC800B80B0020D80B0020160C0020280C00206F
:103DD800640B002000000000F531001009320010CB
:103DE8000D32001021320010AD32001045340010A1
:103DF80000000000BE320010A833001096330010F7
:103E080084330010BE320010BE320010BE320010E3
:103E1800BE320010BE320010463300102A330010A4
:103E2800163300100900525000000002A03B001099
:083E38000800525012100200B4
:103E4000D03C0010DC3C0010E83C0010F43C0010BA
:103E5000003D00100C3D0010183D0010243D0010E6
:083E6000383E00102C3E00105A
:103E6800F0B5C646150000B504001E000268EFF361
:103E7800108172B61368002BFCD0BFF35F8F042348
:103E8800E3562268002B2BDBBFF35F8F0020106006
:103E980081F31088D02212061278002752B2904679
:103EA8009A420ED1002080BCB846F0BDBFF35F8FA8
:103EB800176081F310882800310000F0E9FE00281F
:103EC800F0D12268EFF3108172B61368002BFCD092
:103ED800BFF35F8F237922687F2BE7D9434602E03F
:103EE800D0231B061B682371BFF35F8F0023136069
:103EF80081F310880120D6E7F0B5C64600B50D005D
:103F0800040000F0EDFEFA2206000F00002328004E
:103F18000021920000F0C4FE36184F41002F02DA4B
:103F28000126174F7642D0231B061B6800259846AA
:103F38000AE0BFF35F8F156081F310883000390005
:103F480000F0A6FE002818D12268EFF3108172B69F
:103F58001368002BFCD0BFF35F8F237922687F2B77
:103F6800E7D943462371BFF35F8F0023136081F3C2
:103F78001088012080BCB846F0BD0020FAE7C04692
:103F8800FFFFFF7F0268EFF3108172B61368002B02
:103F9800FCD0BFF35F8FFF2303710368BFF35F8F0C
:103FA80000221A6081F3108840BF70470022154B29
:103FB80010B59A60DA601A615A619A61DA611A6218
:103FC8005A629A62DA621A635A639A63DA631A6403
:103FD8005A649A64DA641A655A659A65DA651A66E3
:103FE8005A669A66DA661A675A679A67DA67F03223
:103FF80092000021044800F03BFE044B044A1A607A
:1040080010BDC04600001050641B0020281F00206F
:1040180080011050F0B54E464546DE465746E0B59D
:10402800214B00249E6D012585B0002E22D01F4B08
:104038009A46012399461E4B984601E0202C19D038
:104048002A00230001342F003240E4B26D00002A18
:10405800F4D0524697654A465B085B0022409B189D
:104068005B01434418009B4600F01EFC002808D161
:10407800BE43E3D105B0F0BCBB46B246A946A04654
:10408800F0BD5B46E0219A78DB8A01A883600023B3
:10409800C900018001210271437100F025FC5846D6
:1040A80000F0A0FBE4E7C0460000115000301150BA
:1040B800241B00209823F0B5C646C84A00B5D55839
:1040C80080232E009B02102484B01E401D4274D011
:1040D800C34BC44C9A6AC44B00261A603B23E35C6A
:1040E800022B00D14FE17B23E35C022B00D1F3E0EC
:1040F800BB23E35C022B00D1FAE0FB23E35C022B39
:1041080000D101E13C23FF33E35C022B00D12DE118
:104118007C23FF33E35C022B00D10EE1BC23FF3389
:10412800E35C022B00D13FE1FC23FF33E35C022B6D
:1041380000D1F5E0AD4BE35C022B00D174E1AC4B50
:10414800E35C022B00D105E1AA4BE35C022B00D112
:1041580075E1A94BE35C022B00D132E1A74BE35C8C
:10416800022B00D1A0E1A64BE35C022B00D171E148
:10417800A44BE35C022B00D1A1E1A34BE35C022B2F
:1041880000D17FE1002E08D1A04B1B78002B04D171
:1041980080219F4A90338902D150C02269468F4BB3
:1041A80092009B6C80265B058A805B0D012101A82B
:1041B800029300F099FB974CB602EB0600D57FE01E
:1041C80080235B021D4231D01E43012302249846FE
:1041D800844FBB7E002B14D000F06AFD012800D963
:1041E80072E0C02200213800920100F001FB380083
:1041F80000F0F8FA00F05CFD012802D9844B5C66F7
:104208001C664346FB702037012C22D1C0236A4626
:10421800DB009380804A02AB03CA03C3012101A8D3
:1042280000F062FB80227A4B92021A6580235B01C0
:104238001D4210D18023DB011D4223D180231B02A4
:104248001D422FD1AE4200D0C0E104B080BCB846B8
:10425800F0BD0124BDE700241E43604B1C60FFF73E
:10426800A5FE80236A465B0093801472012101A891
:1042780000F03AFB8022664B12031A658023DB01AB
:104288001D42DBD01E4380236A46DB009380012158
:1042980001A800F029FB10225D4B1A6580231B0240
:1042A8001D42CFD01E43A0236A46DB009380012124
:1042B80001A800F019FB8022554B12011A65C1E7CD
:1042C800FFF7A8FE26007BE7544B444A1C66536E52
:1042D8002340A342FBD184E77833E75C002F00D169
:1042E80006E70233E25C002A00D00DE13E00FFE65B
:1042F800B833E75C002F00D1FFE60233E25C002A06
:1043080000D0F9E03E00F8E6F833E75C002F00D172
:10431800F8E60233E25C002A00D041E13E00F1E613
:10432800F933FF33E75C002F00D103E70233E25C87
:10433800002A00D02BE13E00FCE67933FF33E75C2E
:10434800002F00D1EAE60233E25C002A00D015E132
:104358003E00E3E6324BE75C002F00D1F4E602337F
:10436800E25C002A00D001E13E00EDE63933FF337C
:10437800E75C002F00D1CBE60233E25C002A00D0D4
:10438800EBE03E00C4E63833E65C002E00D1AAE636
:104398000233E25C002A00D1A5E62000002220308A
:1043A800E25400F04DFA9EE6B933FF33E75C002F84
:1043B80000D1B9E60233E25C002A00D0C4E03E0036
:1043C800B2E6184BE75C002F00D1C7E60233E25C87
:1043D800002A00D0B0E03E00C0E6C0460000115000
:1043E80000400540241B00201C1B00203B0200004D
:1043F8007B020000BB020000FB0200003B03000040
:104408007B030000BB030000FB030000591F0020D2
:104418000030115010000200000010500020115010
:104428007A020000FA0200006B4BE75C002F00D113
:1044380085E60233E25C002A76D13E007FE6674BD0
:10444800E75C002F00D184E60233E25C002A63D1E6
:104458003E007EE6624BE75C002F00D188E602331F
:10446800E25C002A00D0A3E05E4BE35C022B30D173
:104478005D4BE35C002B27D15C4BE35C022B00D047
:104488008BE63E005A4BE35C002B00D17AE6FF2313
:104498009B00E25C002A00D17FE60022E2541C3B2C
:1044A800E01800F0CDF978E6524BE75C002F00D118
:1044B80059E60233E25C002A16D13E0053E64A4B25
:1044C800E35C002B00D158E6EF239B00E25C002A56
:1044D80075D1464BE35C022B00D05EE6444BE35CAF
:1044E800002B00D159E6D2E70022E2541C3BE01829
:1044F80000F0A6F93E0036E620000022A030E25483
:104508003E0000F09DF9F8E5200000226030E254FA
:104518003E0000F095F9EBE50022E2541C3BE01860
:1045280000F08EF93E0014E60022E2541C3BE0182D
:1045380000F086F93E0002E60022E2541C3BE01837
:1045480000F07EF93E0009E620000022A130FF308D
:10455800E2543E0000F074F9E6E520000022213024
:10456800FF30E2543E0000F06BF9D1E50022E2543E
:104578001C3BE01800F064F93E00E5E5200000224D
:104588006130FF30E2543E0000F05AF9C6E52000E1
:104598000022E130FF30E2543E0000F051F9C9E555
:1045A80020000022E030E2543E0000F049F9A9E57D
:1045B8000022E2541C3BE01800F042F954E70022C4
:1045C800E2541C3BE01800F03BF982E731000A484E
:1045D800694000F075FBC0463A020000BA020000CC
:1045E8007A030000BB030000BA030000FB030000CD
:1045F800FA0300003A030000443B0010F0B5C64639
:1046080000B50200838A008B8C46011C984200D9B1
:10461800191CD47880252000461EB04189B2ED00CF
:104628000D434003284301256C405B1AD47054782D
:104638009BB29382002C31D16446D568A4014E1EEA
:104648002D19B0461469002923D0062E32D92B0023
:1046580023439B072ED1631CEB1A022B2AD9002374
:104668008F08BF00E658EE5004339F42FAD1434604
:10467800ED19DB1BE419B94209D026782E70002BFE
:1046880005D066786E70012B01D0A378AB701469E1
:10469800938A64181461802212021043002B02D1FD
:1046A8008023DB0118436346002B00D0000480BC44
:1046B800B846F0BD0023E65CEE5401339942FAD1C6
:1046C800E5E7C0468368F0B51A680400002900D001
:1046D800120C63789205900D002B08D1E38AC31859
:1046E800E382238B834201D90023A382F0BDE368D0
:1046F800890125695E18471E002822D0062F26D971
:1047080001315B18EB1A022B21D92B0033439B078D
:104718001DD10023120E9200F158E95004339A4239
:10472800FAD1BF1AAD18B618904209D032782A705B
:10473800002F05D072786A70012F01D0B278AA7064
:104748002569E38A2D18C318E3822561C9E7002289
:10475800B35CAB5401329042FAD12569F1E7C04607
:1047680010B50400836800211B68FFF7ABFF63687E
:104778001B685B0002D5238B834200D010BD01214A
:104788002000FFF79FFFF9E7084A0300126C00209A
:10479800920703D49A78D209012A00D07047D87EAC
:1047A800023843425841C0B2F8E7C04600001150F1
:1047B80010B5FFF7E9FF00280CD00749074B8C46D6
:1047C800074A9B6A126863449B1A0020C6229A42D1
:1047D8004041C0B210BDC046E0FCFFFF00400540AC
:1047E8001C1B002000238376436103617047C04689
:1047F80010B58368002901D01C682140002A12D016
:104808008024E400114322420DD01A6822420CD1C0
:10481800084A0A401A60084A126C920703D40C230B
:10482800033BFDD28368196010BD8178034800F00E
:1048380047FAC046FFFBFFFF00001150583B00102D
:10484800436870B50021802504001E68FFF7D6FE76
:10485800124B6D011A6C0543A37892070ED55B06BF
:104868000ED00F4B1E4080239B0533436268002106
:10487800136020002A00FFF7BBFF70BDDB09F0D0F2
:10488800A38A002BEDD001212000FFF7B7FEA0235B
:10489800044ADB05324005431343E7E700001150A3
:1048A800FFFFFFAFFFFFFFDF70B5857E0400002D1F
:1048B80014D0FFF755FFA38A002B01D1280070BD43
:1048C8002000FFF775FF002803D001230025237778
:1048D800F4E72000FFF7B4FF0025EFE781780148EF
:1048E80000F0EEF9783B0010F0B5CE46474680B5AB
:1048F800437805000E0085B0062B08D86B4A9B004C
:10490800D3589F466A4A13780133DBB21370694B58
:104918001C686269EFF3108172B61368002BFCD033
:10492800BFF35F8FA1612000290000F0A9F9626937
:10493800A369BFF35F8F0021116083F310880028FB
:1049480004D105B0C0BCB946B046F0BD32006978A4
:10495800287800F0BDF9F4E70121574B1A788A430B
:104968001A701A7801318A431A7000225A701A781C
:1049780002318A431A70CAE7504B514F9946514B3E
:10498800002498463A7810E043461B6861015B189A
:10499800002B06D0DB69002B03D06968287898477C
:1049A8003A780134E4B2944217D8A242ECD8A31A58
:1049B8005B014B44EEE7404B1A78D207C1D504217E
:1049C8001A780A431A70A2E73B4B1A78D207B8D56F
:1049D80004211A788A431A7099E7374F3B785B07A6
:1049E8002BD504223B78002193433B706B4606325B
:1049F800981D00F03DF92B7801AC237005236370F6
:104A08002C4B1B6898465A69EFF3108172B61368ED
:104A1800002BFCD0BFF35F8F4346404699612100CD
:104A280000F02EF943465A699B69BFF35F8F002156
:104A3800116083F31088002831D1FB78DB0700D49C
:104A48007FE76B460A220021981D00F011F92B78A8
:104A580001AC2370032363706B686360154B1D689A
:104A68006A69EFF3108172B61368002BFCD0BFF3AC
:104A78005F8FA9612800210000F002F96A69AB691B
:104A8800BFF35F8F0021116083F31088002800D1E5
:104A980057E732006178207800F01AF951E73200C0
:104AA8006178207800F014F9C7E7C046C03D0010CF
:104AB8005A1F00201C190020C4180020DC3D0010DB
:104AC800581F0020E417002010B5084C2378002B4D
:104AD8000AD18023064807495B051A68C250043387
:104AE8008B42FAD10123237010BDC0465B1F002002
:104AF800E01900100001001010B5014B984710BDD7
:104B0800E1190020034B1A68C0239B009343024A13
:104B1800136070470C8001400C900140054B1A68E7
:104B280080239B005340C02292001340024A136026
:104B38007047C0460C8001400C9001400023F0B53E
:104B4800DE4657464E4645469A46E0B583B0019044
:104B58000E00988A42491B8B140098475346814699
:104B68004049988A1B8B984753463F490500988AC5
:104B78001B8B98478046FFF7A7FFC847A847FFF752
:104B8800CDFF251E22D00823C0219C4602204905BE
:104B980062468B6A1A4018423CD0631B002D2CD108
:104BA800002A11D1002C11D0C0235B059B4602239B
:104BB8009A46063399465B464A4657469B6A1A40C8
:104BC8001F423FD0002AF6D0002C2DD1FFF79AFFC4
:104BD800C047FFF791FF03B0F0BCBB46B246A946F9
:104BE800A046F0BD002C2FD1C0225205926A9146F2
:104BF80008224F463A40BF072DD50D2B1BD9002A56
:104C0800F0D1C0225205926A914608224F463A4096
:104C1800BF07F2D4002A04D12B002343002BB7D1BD
:104C2800D4E72B00002CF9D00B6E013C3370230025
:104C380001362B43F2E7019F013D3B7801370B66B4
:104C48000197E7E70025E5E7C0235B051B6E013CFC
:104C5800337001369CE72B00002ADFD1DCE7C04621
:104C68004946000045580000464300007047C046CA
:104C780001B40248844601BC604700BF991C00107B
:104C880001B40248844601BC604700BFA936001041
:104C980001B40248844601BC604700BF8512001079
:104CA80001B40248844601BC604700BFC51B001020
:104CB80001B40248844601BC604700BF49050010A2
:104CC80001B40248844601BC604700BF5505001086
:104CD80001B40248844601BC604700BFED240010BF
:104CE80001B40248844601BC604700BFB5130010F8
:104CF800A43B0010783A0010803A0010943A001053
:104D0800100000000000000000000100000000008A
:104D18000000000000000200000000000000000089
:104D28000000030000000000000000000000FF0079
:104D38000000000001B5486801318E460047704602
:104D480009380149884701BD0D0B0010000000001B
:104D5800000000000000000000000000000000004B
:104D68007811002000000000000000000000000092
:104D7800503300004C33000054330000523300001D
:104D88004D5300004D4300005334000043340000ED
:104D9800E51F0010E920001031200010FD20001050
:104DA80000000000000100002019002010000C0085
:104DB80000000000000000000000000000000000EB
:104DC80000000000FF00000030100020000000007C
:104DD800000000001815002080150020E8150020AC
:104DE80000000000000000000000000000000000BB
:104DF80000000000000000000000000000000000AB
:104E0800000000000000000000000000000000009A
:104E1800000000000000000000000000000000008A
:104E2800000000000000000000000000000000007A
:104E3800000000000000000000000000000000006A
:104E4800000000000000000000000000000000005A
:104E5800000000000000000000000000000000004A
:104E68000000000000000000010000000000000039
:104E78000E33CDAB34126DE6ECDE05000B000000FE
:104E8800000000000000000000000000000000001A
:104E9800000000000000000000000000000000000A
:104EA80000000000000000000000000000000000FA
:104EB80000000000000000000000000000000000EA
:104EC80000000000000000000000000000000000DA
:104ED80000000000000000000000000000000000CA
:104EE80000000000000000000000000000000000BA
:104EF80000000000000000000000000000000000AA
:104F08000000000000000000000000000000000099
:084F1800000000000000000091
:04000005100001E9FD
:00000001FF
